:020000040800F2
:1000000010080020CD010008991700087515000898
:100010008D16000813040008252D000800000000BC
:10002000000000000000000000000000392200086D
:10003000B50A000800000000091F0008B1270008E9
:10004000E7010008E7010008E7010008E7010008F0
:10005000E7010008E7010008DD0E0008910F000825
:10006000E7010008E7010008E7010008E7010008D0
:10007000E7010008E7010008E7010008E7010008C0
:10008000E7010008E7010008E7010008E7010008B0
:10009000E7010008E7010008E7010008E7010008A0
:1000A000E7010008E7010008E7010008E701000890
:1000B000E701000881280008E7010008E7010008BF
:1000C000E7010008E7010008E7010008E701000870
:1000D000E7010008E7010008E7010008E701000860
:1000E0001D0F0008E7010008E7010008E70100080C
:1000F000E7010008E7010008E7010008E701000840
:10010000E7010008E7010008E7010008E70100082F
:10011000E7010008E7010008E7010008E70100081F
:10012000E7010008E7010008E7010008E70100080F
:1001300000F002F800F03AF80AA090E8000C8244BF
:100140008344AAF10107DA4501D100F02FF8AFF29C
:10015000090EBAE80F0013F0010F18BFFB1A43F0A5
:10016000010318472439000044390000103A24BF25
:1001700078C878C1FAD8520724BF30C830C144BF0C
:1001800004680C607047000000230024002500264E
:10019000103A28BF78C1FBD8520728BF30C148BFEA
:1001A0000B6070471FB51FBD10B510BD00F031F8D2
:1001B0001146FFF7F7FF02F0B6FD00F04FF803B469
:1001C000FFF7F2FF03BC00F057F800000948804732
:1001D00009480047FEE7FEE7FEE7FEE7FEE7FEE729
:1001E000FEE7FEE7FEE7FEE704480549054A064B41
:1001F000704700003128000831010008100200207B
:1002000010080020100400201004002070477047E0
:100210007047754600F02CF8AE4605006946534617
:1002200020F00700854618B020B5FFF7DDFFBDE8D8
:1002300020404FF000064FF000074FF000084FF04D
:10024000000B21F00701AC46ACE8C009ACE8C009DE
:10025000ACE8C009ACE8C0098D46704710B504464B
:10026000AFF300802046BDE81040FFF7A8BF0000B4
:1002700000487047B001002001491820ABBEFEE7DE
:1002800026000200704710F1FF4F01D380F00040BC
:10029000704700002DE9F0410546224C4FF0FF3732
:1002A0003946606F804603F0B8F806464146206F35
:1002B00003F00CF880464FF080418E4200DA1A4E6F
:1002C0001A4A304601F0CEF90146194802F0FEFF05
:1002D000414602F0FBFFE067164A002101F0C2F937
:1002E000E06794F90C1019B994F90E1001B9394668
:1002F000617300F0C1F80020A070A0660949803148
:100300000860E073086108622075A067A5620E208E
:100310002070094801F009FD0848A0646064BDE848
:10032000F081000030000020000020410000344235
:1003300000002F43000061437C0100200000484280
:1003400070B505460C4600F097F8114801F0EDFC39
:10035000104A022010700121D1745473956202F189
:100360008003002058609172D0725066D07318617B
:10037000186210750848002C01DD014601E04FF0BD
:100380000001516401DB4FF00000906470BD00007B
:100390007C01002030000020000048422DE9F0419F
:1003A00007460C46164601F09BFE0021084602F067
:1003B000ABF800F061F8012E08D002250E4B1D703D
:1003C000022E05D00022DA7434B903E00B25F5E7DC
:1003D0000122F8E74FF0FF345C739F62064900206A
:1003E0008031486001229A72D8725866D8730861C9
:1003F00008621875BDE8F08130000020002104E09B
:1004000000F001021144C9B240080028F8D10846A2
:100410007047FEE710B5002815D0052813D80B4CFF
:10042000607910F0180F0ED010F0810F0BD1084634
:10043000FFF729FFB0F17F5F05DC607900F02EF84F
:1004400008B1012010BD002010BD000030000020C8
:1004500070B506460D4614462946304602F0FAFDB0
:1004600001D2284670BD2146304602F0F3FE01D28B
:10047000204670BD304670BD0748002141720172B0
:10048000C171C165017341670167C1668030C16098
:10049000816081617047000030000020002801D198
:1004A00070474008C107FCD0411C084201D101201F
:1004B00070470020704700002DE9F04F8BB0804658
:1004C0000C4602A903A800F039FEBDF80C0040421A
:1004D0000FFA80FBBDF908A0584602F08FFDFC4DD5
:1004E0008146294602F0EAFDFA4F394602F0E6FD60
:1004F000F94E314602F0A4FC0590504602F07EFD14
:1005000029460A9002F0DAFD394602F0D7FDF34D94
:10051000294602F095FC0490204602F087FD314602
:10052000099002F0CBFDEE4E07464846314602F0F8
:10053000C5FD394602F084FCEA4F786329460998E4
:1005400002F0BCFD054631460A9802F0B7FD294687
:1005500002F076FCB863786D58447865B86D504405
:10056000B865DDE9041002F0F7FB4FF0FF3102F04F
:1005700054FF814638780A281CD007A801F038FDBE
:1005800005460026BE7402F015FBD0B1282C05D913
:1005900001F0A6FDFFF770FF7E66FE7297F903007B
:1005A000CDE9000459460020FB6C7A6B00F068FD31
:1005B000B8B90BE01E21084601F0A6FF0BB0BDE85C
:1005C000F08F0021084601F09FFFF7E797F904003C
:1005D000CDE90004514601203B6DBA6B00F050FD9F
:1005E00018B1092000F0BCFFE8E7282C01D914203D
:1005F00000E0204602F01AFDBB4902F05FFD0690C4
:10060000BA49069802F0A8FB0146069802F018FCC9
:100610008246F96B786B8B4602F058FE514602F029
:100620004DFD594602F098FBF863396CB86B8B4668
:1006300002F04CFE514602F041FD594602F08CFB9F
:1006400038643878DFF8A8B20E280AD0DFF894A210
:100650000B280AF1800A28D0022826D00F283AD089
:100660004AE04946B86F02F077FBB867F96F02F0CD
:10067000F1FD06D8012297F90D104046FFF78EFED6
:100680009CE7B86A41F27071A8EB0000884203D37E
:10069000082000F065FF91E7C7F848B0C7F844B0FC
:1006A0002046069900F0B8FB88E7DDE9040102F076
:1006B0000DFE904902F0C4FBDAF8041002F04CFB86
:1006C000CAF80400079800902B4621464046069A37
:1006D00001F0E8FD72E70021084601F015FFB86A55
:1006E000A8EB00005028CBD3BDB101F0F9FC0120EC
:1006F000387007983863F86207A9204601F04EFD6C
:10070000787D38B1DAF82800A8EB0000B0F5C87F92
:1007100000D37E75B87840B130E0787B002240424B
:1007200041B24046FFF73AFE48E7B9F5000F06DB55
:100730004946DAF8000002F00FFBCAF800009DB14C
:100740007878401C85420FD87879FFF7A7FE58B11A
:100750000798FFF798FD6849884205DC282C03D8E4
:10076000B86E2044B86600E0BE66B86EA02805D317
:10077000DAF80000584501DB0120B870F87908BBB1
:10078000387801281ED128460799FFF743FEC8B1E3
:100790007878854216D9401C854213D8282C11D868
:1007A000B87DA84202D0BD75CAF82C60DAF82C00DA
:1007B0002044CAF82C00B0F5C87F06D37D70CAF873
:1007C0002C6002E0BE75CAF82C604B462A462146D2
:1007D000404601F0C3F920B12046069900F01CFB09
:1007E000ECE6EDB37E66F879D8B328460799FFF7B3
:1007F00011FEE8B1787885421AD8DAF8080020446A
:10080000CAF808000890B9F5000F06DB4946DAF887
:10081000180002F0A1FACAF81800089864280BD34F
:10082000DAF81800B0F1824F06DBFFF725FE03E08F
:10083000CAF80860CAF81860F879C0B1387AB0B957
:100840007878401C854212D80798FFF71CFDB0F15C
:10085000814F0CDBDAF80C002044CAF80C0001E0F0
:100860001FE003E03C2804D3FFF706FE01E0CAF8CE
:100870000C60F87950B3397A41B3DAF8081029BB23
:10088000F96D282922D3CAF820603E750C203870F3
:10089000C7F848B0C7F844B02046069900F0BCFA43
:1008A0008CE6786E20447866F97981B17A7A052AE7
:1008B00024D3FA6D282A21D328281FD34046FFF7D6
:1008C000E9FC2046069900F0A7FA77E672E015E009
:1008D000DB0F49400000304200007B43CDAC844335
:1008E00000606A47300000206F12833A8FC2753D66
:1008F00000004842000005430000A040502839D2C3
:1009000051B1787A052807D3F86D282804D3C7F8A1
:1009100048B0C7F844B028E0B86CFFF7B4FC05460F
:10092000786CFFF7B0FC294602F094FC04D2786C96
:10093000FFF7A9FC014603E0B86CFFF7A4FC0146F1
:100940005648814202DD02F07BFA01E04FF07E5012
:1009500005462946786C02F0B1FB78642946B86CEC
:1009600002F0ACFBB8640120B8742046069900F090
:1009700053FA23E64A49F86A884201DB012114E070
:1009800010F17F5F02D34FF0FF310EE097F91110A5
:1009900031B1DAF81400A8EB0000B0F5167F04D9E5
:1009A00097F90E1009B94FF0FF3100224046FFF7CA
:1009B000F5FC03E601213970797D08434AD1787846
:1009C000401C854246D87879FFF768FDF0B3079858
:1009D000FFF759FC334988423CDB282C3AD807986A
:1009E00010F1FF4F02D34FF0FF3500E0012597F9DA
:1009F0001410A94206D03D75CAF82060FFF743FCE9
:100A0000CAF824004FF07C51DAF8240002F05EFCB2
:100A100081460798FFF737FC494602F01BFB06D2D8
:100A2000CAF820600798FFF72EFCCAF82400DAF80D
:100A300020002044CAF82000B0F5167F0DD32946C7
:100A40004046FFF77DFC2046069900E002E000F0FA
:100A5000E3F9B3E5CAF820603E757879FF2804D041
:100A6000787D48B1DFF840B00DE0104801F05DF945
:100A70000A48B86478640CE0F87997F90F100843D5
:100A800001D1DFF82CB0DDE906215B46404600F0DD
:100A9000C7FB2046069900F0BFF98FE50000104221
:100AA000000040400000C040000028427C010020BF
:100AB000000070427047000070B57E4DA979481C57
:100AC00000F00300A8712846002900781CD00129F5
:100AD0007DD002297ED00A287DD00028FCD076A2C5
:100AE0000121042001F005F8032395F903200521D5
:100AF000042000F0CDFF95F90420BDE870400323E9
:100B00000A21042000F0C4BF102859D2DFE800F009
:100B100058081658215858582F28513D0F58364A12
:100B2000BDE87040012169A2084600F0E2BFBDE8BF
:100B3000704001216AA2084600F0DBBFE87C08B1E2
:100B40006CA200E070A2BDE870400121084600F0F0
:100B5000D0BFBDE87040012170A2084600F0C9BFB7
:100B6000BDE87040012172A2084600F0C2BFBDE896
:100B70007040012173A2084600F0BBBFBDE8704081
:100B8000012175A2084600F0B4BF95F90D000028B8
:100B900001DA76A200E07AA2BDE8704001210846A1
:100BA00000F0A7BFBDE8704001217AA2084600F01E
:100BB000A0BFBDE8704001217BA2084600F099BFAC
:100BC000BDE8704001217DA2084600F092BF0A28CE
:100BD00013D001E01EE049E07DA20121022000F0D7
:100BE00088FF28780A2814D000240126697906FA9B
:100BF00004F0084203D0312202E07AA2EDE730226D
:100C0000201DC1B2022000F017FF641CE4B2082CC2
:100C1000ECD370BD0A280BD001F0CCFF40B100240A
:100C200075A20121032000F064FF1CB1686B02E093
:100C30000124F5E7E86B02F0C5F90246032104231D
:100C4000084600F025FF6DA20921032000F051FFA6
:100C50000CB1A86B00E0286C02F0B4F9BDE870405C
:100C6000024604230B21032000F012BF6C6DAD6D12
:100C70006348844200DD0446614949428C4200DAFF
:100C80000C46854200DD05468D4200DA0D465DA228
:100C90000121042000F02DFF05232246032104201A
:100CA00000F0F6FE2A46BDE8704005230A21042024
:100CB00000F0EEBE3000002050574D3A202020209A
:100CC00020202020202020200000000052554E200F
:100CD000204B313A53544F50202020200000000078
:100CE000574944453A5741495420455849542020D2
:100CF000000000004544474520435241574C202006
:100D00002020202000000000534541524348204C41
:100D1000494D495445442020000000004E4F204CCE
:100D2000494E4521205245545259202000000000D0
:100D3000454E4320434845434B212053544F5020B8
:100D4000000000004C4F535421204B313A5245547F
:100D5000525920200000000041584C452041445683
:100D6000414E434520202020000000005455524EA3
:100D7000204C454654202020202020200000000048
:100D80005455524E205249474854202020202020BC
:100D9000000000004C494E45205245414351554901
:100DA000524544200000000046574420204B353A6D
:100DB00053544F5020202020000000004649583452
:100DC000204B313A545241434B2020200000000078
:100DD00049523A202020202020202020202020209E
:100DE0000000000049523A4E4F54205553454420CC
:100DF00020202020000000004C3A0000523A000061
:100E00009F860100433A20202020202020202020FF
:100E100020202020000000002DE9F04186B005468A
:100E20008846264CA07C002801D0254800E02548B3
:100E3000414602F043F90646282D00D9142586F0D4
:100E40000047E16C606C02F041FA3246394600F02E
:100E500009FCE16C01F080FFE064216DA06C02F000
:100E600035FA3246394600F0FDFB216D01F074FF82
:100E70002065CDE901581449144ACDE90321A16B3D
:100E80000091024612490120236C01F0A5FB0646A1
:100E9000CDE901580F481049CDE90310606B00906F
:100EA0000B4900203439E36BE26C01F095FB06B08E
:100EB0003146BDE8F04101F027BB000030000020C2
:100EC0000000E14300008743A58695400A744C3D2D
:100ED00048010020ED52CF409E69483D10B50120E9
:100EE00000F07CF8012813D10A4C0121204600F0C3
:100EF00000FB40B90221204600F0FBFA18B9064871
:100F00000188491E0180BDE81040012000F060B852
:100F100010BD0000000C0140100100202DE9F0413F
:100F20004FF48046304600F059F8174C174D7700C3
:100F300001280FD13146284600F0DBFA38B939468E
:100F4000284600F0D6FA10B96088401E608030460E
:100F500000F03EF8384600F041F8012811D139463A
:100F6000284600F0C6FA38B93146284600F0C1FAE2
:100F700010B96088401C60803846BDE8F04100F040
:100F800027B8BDE8F081000010010020000C0140EE
:100F900010B5022000F022F8012813D10A4C0221DA
:100FA000204600F0A6FA40B90121204600F0A1FA3F
:100FB00018B906480188491C0180BDE8104002208C
:100FC00000F006B810BD0000000C01401001002028
:100FD00001490860704700001404014001460020E8
:100FE000054A12680A40044B14331B680B4202D0B6
:100FF000002A00D0012070470004014030B51B4A90
:1010000083790168002B2AD013688B431360111D6C
:101010000B680468A3430B60017911440B680468F2
:1010200023430B60114C0834216803689943216005
:10103000231D19680568A94319604179102905D055
:1010400011440A68006802430A6030BD21680268E2
:1010500011432160196800680143196030BD0079AF
:10106000104402688A43026030BD00000004014061
:101070000021016001710C224271817170470000F2
:101080002DE9F041DDE9064513F1FF4F03D383F06D
:10109000004382F00042002C01DA644264B2DFF8BF
:1010A00068801A4F002607F1080C434503DB082C23
:1010B00001DB282D06D94CF8206047F8206000207D
:1010C000BDE8F08151B147F8206012F17D5F0BD986
:1010D0005CF8201029444CF8201007E057F8201045
:1010E000294447F82010F0E74CF8206057F820100A
:1010F000B1F52F7F03D25CF82000FA2801D301203C
:10110000DEE70020DCE7000000002041E8000020CE
:10111000AFF3008010B5411E022901D3002010BD9D
:10112000EFF3108272B6044B33F91100002423F858
:10113000114082F3108810BD1001002010B5002866
:101140000ED000290CD0EFF3108372B6054A148834
:1011500004805088088000205080108083F310881D
:1011600010BD0000100100207FB50121092000F012
:10117000DBFE03A800F0C6F948208DF80F004CF202
:101180000305ADF80C5003A9244800F02DF9002107
:10119000012000F015F90121084600F011F90E2197
:1011A000012000F00DF90F21012000F009F901A83C
:1011B000FFF75EFF019501248DF80A4000208DF8AD
:1011C00008000C208DF809002846FFF701FF01A850
:1011D000FFF714FF4FF4A06000F012FB06208DF81B
:1011E00000008DF8014002208DF802008DF80340C8
:1011F000684600F0D3FA07208DF8000003208DF830
:101200000200684600F0CAFA28208DF800008DF828
:101210000240684600F0C2FA7FBD0000000C0140A9
:101220002DE9FF4F83B082460C469346DFF85C8180
:10123000DFF85C912746574DEC622046FFF723F814
:101240005549884201DB012000E00020A87408B164
:10125000DFF848812046FFF716F851494E008842D2
:1012600009DBB44201D3F01700E00120687449485B
:101270008030C0F814A02046FFF705F8B0F17F5F7A
:1012800017DC2046FEF7FFFF4FF07D57B8420FDD19
:101290002046FEF7F8FF394602F018F8B44201D3B1
:1012A000404901E04FF07E5101F008FF074600E0A1
:1012B0000027296B38468A4602F008F80746594647
:1012C000404601F049FD0146584601F0B9FD394656
:1012D00001F0F4FE514601F03FFD2863FEF7D3FF15
:1012E0000746A87C50B12046FEF7CDFF394601F0F5
:1012F000B1FF03D22046FEF7C6FF07462A4938460B
:1013000001F0DCFE294901F0D6FF2949069A00F0D8
:10131000A9F907464946384601F0D0FE804687F0D5
:101320000040494601F0CAFECDE9000800235A46B4
:101330002048296B00F004FD8046A87CC0B11E49FE
:10134000B44208D3384601F0B9FE0646414601F0E2
:1013500081FE00D2B0461949B4F5000F08DB3846CB
:1013600001F0ACFE0446414601F074FF00D2A046F5
:101370004146384601F0F0FC68644146384601F0C9
:10138000A5FFA86407B0BDE8F08F00000AD7233D91
:101390009A99593F300000200000A0400AD7233C12
:1013A00000004040000080BF0000904000007042FC
:1013B000000010427C010020666626BF6666263F5C
:1013C00010B58A07120F0F23934021F0030405493B
:1013D00021448C689C438C608B68904003438B60F5
:1013E00010BD0000000001402DE9F0410022CC7842
:1013F00004F00F03E40601D58C7823430C784FF0FA
:101400000F0714F0FF0F4FF0010C1CD005680CFA09
:1014100002F40E882640A64211D1960007FA06F87B
:1014200025EA080503FA06F848EA0505CE78282ECD
:1014300002D0482E02D002E0446100E00461521C58
:10144000082AE4D305600A88FF2A1ED945680022CD
:1014500002F108060CFA06F40E882640A64210D1C6
:10146000960007FA06F825EA080503FA06F848EA9E
:101470000505CE78282E00D14461CE78482E00D1C3
:101480000461521C082AE3D34560BDE8F0810000E6
:10149000F0B5154C002801DAE36900E06368C0F399
:1014A0000346420D120185B2C0F301579540032F48
:1014B00007D0C2020CD50322B240934343F07062BE
:1014C00009E023F07062636823F07063636002E0F8
:1014D000AB4343F0706201B12A43002801DAE261B4
:1014E000F0BD6260F0BD000000000140806880B285
:1014F00070470246002092680A4200D001207047DF
:10150000416170474FF6FF71018002218170042113
:10151000C1707047002A01D0016170474161704776
:1015200008B50121802000F0FFFC6846FFF7EAFFC4
:10153000FF20ADF8000048208DF8030069460248FE
:10154000FFF752FF08BD0000001C014010B5034822
:10155000FFF7CCFFC043C0B210BD0000001C01402B
:1015600010B5044601F08EFB0148047010BD000068
:1015700030000020FEE7000008B50121402000F007
:10158000D3FC6846FFF7BEFF3C20ADF800004820C2
:101590008DF8030069460548FFF726FF044900203F
:1015A000887048700870486008BD0000001801404D
:1015B0002800002070B5002401F012FB0546274EDC
:1015C00010213046FFF795FF50B104213046FFF758
:1015D00090FF38B108213046FFF78BFF20B108E0BB
:1015E000012416E0032414E020213046FFF781FF98
:1015F00050B108213046FFF77CFF38B1202130463A
:10160000FFF777FF20B104E0012402E0022400E0AC
:10161000052413490878844201D00C704D60486855
:10162000281A142801D2002070BD0878002258B171
:101630004B7898420FD0487001280AD0032808D070
:101640008B7843B18A7070BD4A7001208870002089
:1016500070BD8A7070BD002070BD00000018014090
:101660002800002070B506460D461446294630462F
:1016700001F0F0FC01D2284670BD2146304601F051
:10168000E9FD01D2204670BD304670BDFEE7000086
:1016900038B50121092000F047FC01211048FFF76F
:1016A000F7FE104CF0212046FFF72AFF6846FFF7AF
:1016B00029FF10218DF80310F021ADF8001003214F
:1016C0008DF8021069462046FFF78EFE00F0B4FB4D
:1016D000002000F009F8002000F032F838BD0000CA
:1016E00000023000000C014010B50446642C00DDFF
:1016F00064246FF06300844200DA0446002000F0A6
:10170000F3FB012200210D48002C05D009DDC0F8B3
:101710009021C0F8941108E0C0F89011C0F894111D
:1017200003E0C0F89011C0F89421002C00DA644264
:10173000A0B2BDE8104000F0D7BB000000802142FD
:1017400010B54442642C00DD64246FF063008442D1
:1017500000DA0446002000F0CFFB012200210D48F2
:10176000002C05D009DDC0F89811C0F89C2108E0D4
:10177000C0F89811C0F89C1103E0C0F89821C0F897
:101780009C11002C00DA6442A0B2BDE8104000F0C9
:10179000B3BB0000008021427047000070B50F23EA
:1017A000C27801260178002A1ED0144A126802F479
:1017B000E062C2F5E062120AC2F10404D340457847
:1017C000A54082781A402A43120101F1E02181F8F4
:1017D0000024007800F01F018E404009800000F1D5
:1017E000E020C0F8006170BD01F01F00864048098C
:1017F000800000F1E020C0F8806170BD0CED00E0D9
:101800000249084302490860704700000000FA05D9
:101810000CED00E070B500250021284600F0FAF834
:101820000024002000F089F9641CE4B2802CF8D375
:101830006D1CEDB2082DEFD370BD0000F8B501218D
:10184000082000F071FB10208DF8030003208DF8B4
:1018500002004FF48074ADF800400B4E69463046EC
:10186000FFF7C2FD6500ADF8005069463046FFF74E
:10187000BBFD012221463046FFF74CFE01222946DE
:101880003046FFF747FEF8BD000C01402DE9F04758
:1018900007460024154D4FF080084FF40079AE152F
:1018A00028FA04F0384201D0012200E00022494623
:1018B0002846FFF72FFE012231462846FFF72AFE71
:1018C000002231462846FFF725FE641CE4B2082CAE
:1018D000E6D3012231462846FFF71CFE3146284652
:1018E000BDE8F0470022FFF715BE0000000C0140E4
:1018F00070B501220B4D540221462846FFF70AFE1F
:101900000122160231462846FFF704FE0022214636
:101910002846FFF7FFFD31462846BDE8704000220B
:10192000FFF7F8BD000C014070B50A4D4FF400748C
:10193000002221462846FFF7EDFD0122110228462C
:10194000FFF7E8FD21462846BDE870400122FFF779
:10195000E1BD0000000C014010B500214FF47A7287
:101960000020401C9042FCD3491C9142F8D3FFF761
:1019700065FFAE2000F0D0F8D52000F0CDF8802033
:1019800000F0CAF8A82000F0C7F83F2000F0C4F823
:10199000D32000F0C1F8002000F0BEF8402000F095
:1019A000BBF8A12000F0B8F8C82000F0B5F8DA20A4
:1019B00000F0B2F8122000F0AFF8812000F0ACF88F
:1019C000CF2000F0A9F8D92000F0A6F8F12000F00F
:1019D000A3F8DB2000F0A0F8302000F09DF8A42050
:1019E00000F09AF8A62000F097F88D2000F094F807
:1019F000142000F091F8AF2000F08EF8BDE8104000
:101A0000FFF708BF0346012000E05843491E4A1C67
:101A1000FBD1704710B50C4640F0B00000F07CF8E8
:101A2000102040EA141000F077F804F00F00BDE831
:101A3000104000F071B800002DE9F0411546491E34
:101A4000461ECF007006F9B2000EFFF7E3FF002438
:101A50000E48203D00EB0515285D00F06EF8641C73
:101A6000E4B2082CF8D3012000EB4600F9B2C0B272
:101A7000FFF7D0FF00242819007A00F05EF8641CFC
:101A8000E4B2082CF7D3BDE8F081000096340008DA
:101A90002DE9F0478246894617469846002F05DB18
:101AA0002B2249465046FFF7C7FF05E02D22494645
:101AB0005046FFF7C1FF7F4200240A2515E0A8EB3E
:101AC0000401491E0A20FFF79DFFB7FBF0F6B6FBA5
:101AD000F5F005FB106209EB0400401CC1B2303286
:101AE0005046FFF7A9FF641CE4B24445E7D3BDE8C4
:101AF000F0872DE9F04107460D461646002406E022
:101B00002819C1B23846FFF797FF641CE4B2325D72
:101B1000002AF5D1BDE8F08110B50446FFF7E8FED4
:101B20007820FFF7B3FE0020FFF7B0FE2046FFF756
:101B3000ADFEBDE81040FFF7F7BE10B50446FFF755
:101B4000D7FE7820FFF7A2FE4020FFF79FFE204639
:101B5000FFF79CFEBDE81040FFF7E6BE2DE9F05F01
:101B600006460F4614469A46DFF89C8198F8020014
:101B7000002801D0282F04D9FEF77EFC0020BDE804
:101B8000F09F042C14D398F80100801C84420FD3DA
:101B900098F80500FEF782FC50B198F8050010F0A7
:101BA000810F05D010F0180F02D04FF0010B01E0AB
:101BB0004FF0000B98F80590B9F1FF0F01D14FF0ED
:101BC000010B98F807504DB1BAF5000F06DB5146EE
:101BD000D8F8700001F0C0F8C8F870004FF0FF3A74
:101BE000BBF1000F51D0DFF820B14FF000090BF12D
:101BF000800BCBF8209088F8149028004FF0010556
:101C000003D1FEF739FC88F80750D8F85C00384457
:101C1000C8F85C00C8F86C90C8F86060D8F870002C
:101C2000C8F8740098F80900844201D988F809407E
:101C3000CBF80C90CBF80890CBF81890062C01D379
:101C400088F8085098F80500C10704D0010602D4AE
:101C500088F80CA005E0010603D5C00701D188F87B
:101C60000C50C8F8649098F8080060B10C2088F80F
:101C70000000264800F059F82548C8F84800C8F880
:101C8000440001207BE7002079E775B1D8F85C00BB
:101C900028280AD2D8F86C003844C8F86C002828E4
:101CA00001D9FEF7E9FB002069E705B3FCB148461E
:101CB000FEF7F4FBD8B1002098F80510CA0703D04E
:101CC0000A0601D4504604E00A0602D5C90700D12D
:101CD000012060B198F90C1009B1884207D188F849
:101CE0000C00C8F86060D8F87000C8F8740098F864
:101CF000070030B1D8F86000301AC82801D9FEF7C3
:101D0000BBFB00203BE70000300000207C010020EE
:101D10000000484230B4DDE9024501604260836062
:101D20008462C56230BCAFF30080002181614161F3
:101D30000161C16041620162C16180F83010704789
:101D40002DE9F05F0446DDF82C900D4690461E46C6
:101D50004FF40007B84504DB48460A9901F07AF9C8
:101D600002D2606ABDE8F09F94F8300038B128468E
:101D7000A16901F0ABFA414601F062F800E00020F1
:101D8000D4F820A0514601F0A1FA83464146E06A0A
:101D900000F0E2FF0146404601F052F8594601F0DA
:101DA0008DF9514600F0D8FF2062012184F83010EF
:101DB000A5616561A2680146104601F07FF982467F
:101DC0002946206801F07AF9314600F0C5FF5146F6
:101DD00000F0C2FF8246A66A294686F0004B606882
:101DE00001F06CF9414601F069F9E16900F0B4FFD6
:101DF00032465946FEF72CFB06463146504600F067
:101E0000ABFF80464946404601F024F901D9BD4266
:101E100008DA40460A9901F01DFA02D915F1FF4F80
:101E200000D2E6615046E16900F096FF4A460A9901
:101E3000FEF70EFB606295E730B58DB001210846D4
:101E400000F064F80121042000F06EF80CA8FFF700
:101E500059FB18208DF833000C20ADF8300003201A
:101E60008DF832000CA91E48FFF7BEFA4FF08045EE
:101E7000284600F040FD684600F064F8029CDDE969
:101E80000110884200D0640009A800F00DFE632014
:101E9000ADF828001348B4FBF0F1491EADF824104A
:101EA00009A9284600F0B2FD05A800F09FFD6021B9
:101EB000ADF814100021ADF81C100122ADF8162069
:101EC000ADF81A1005A9284600F01AFD05A9284604
:101ED00000F058FD0121284600F0EBFC0DB030BDAC
:101EE00000080140A0860100642800D96420014652
:101EF0004FF0804000F084BD642800D96420014682
:101F00004FF0804000F07EBD70470000054A002978
:101F100003D0D1690143D1617047D1698143D16157
:101F20007047000000100240054A002903D0916963
:101F3000014391617047916981439161704700004D
:101F40000010024010B5264A516801F00C01254BE3
:101F5000002927D0042927D0082927D003605168F9
:101F600001F0F0010909204B5C5C0168E14041602F
:101F7000546804F4E064240A1C5D21FA04F48460CB
:101F8000546804F46054E40A1B5DD940C16052688F
:101F900002F44042920B144B1B1F9A5CB1FBF2F10E
:101FA000016110BD0360DAE70360D8E7516801F40E
:101FB0007011536803F48033022404EB914133B170
:101FC00053689B0307D5094B59430160C7E7074B8B
:101FD00059430160C3E7034B59430160BFE7000069
:101FE0000010024000127A001800002000093D0095
:101FF0002DE9F14F82B00024A1460026A246002719
:10200000A04634480190FFF7A1FA33494871029A7B
:1020100000201060087441E0DFF8BCC0012303FA1F
:1020200004F09CF80520104202D1641CE4B235E0B3
:102030002546002103E0491CC9B2641CE4B2082C07
:1020400003D203FA04F01042F5D101EB4500401E23
:1020500000F0D4FF214901F039F98346042D03D85B
:10206000032C01D94FF00109032C01D801265F464A
:10207000052D02D34FF0010AD8461748C16A5846C9
:1020800001F024F9FEF7FFF805462846019900F013
:10209000E1FF03D201950298C0F800B0082CBBD331
:1020A000B9F1000F10D056450ED0002E02D04FF0DF
:1020B000FF3001E04FF001000749087400D14746A6
:1020C000054800F18000C76103484079BDE8FE4F34
:1020D000FEF794B90000C842300000200000E04044
:1020E0002DE9FC4100F066FD40B12549002000F0DB
:1020F000A5F823490120343100F0A0F8214E224DEB
:10210000224F234CCDE9005600233A4621461C4875
:10211000FFF700FE1A48CDE9005600233A46214653
:102120003430FFF7F7FD6802CDE9000414483B4660
:10213000002218496830FFF7EDFD1749486BC86366
:10214000886B086400200865C8648864486401F1ED
:10215000C00250601060083A506010601832506041
:102160001060083A50601060103250601060C13A40
:1021700050701070921C507010708874BDE8FC8113
:10218000140100200AD7233D0000A041EC51383E45
:102190008FC2753DCDCCAC403000002070B50F4BE8
:1021A000002503F1800493F91020002A01D028288B
:1021B00002D9DD73256170BD93F90F60964201D09D
:1021C000DA73256122693C2A01D21044206120691A
:1021D0003C28F0D3E069086070BD000030000020AA
:1021E0002DE9F0470746884691461E460F4C0120D0
:1021F00020700025E574607504F1800ACAF8287023
:102200000B48FFF792FDE66225636566CAF8205029
:102210002575084B4A4631463846FFF701F84946CE
:102220004046BDE8F047FEF7F7BD00003000002053
:102230007C01002000002842704700002DE9F04199
:1022400005460C461548405D002825D0E069B0F5EC
:10225000000F21DB2069FEF716F8114FB0F1824F15
:102260001ADBE068FEF70FF8394600F075FD064608
:102270002069FEF708F8314600F0ECFE0CD8E16961
:10228000064C973454F8250000F066FD3A460021CC
:10229000FFF7E8F944F82500BDE8F0814900002087
:1022A000000040412DE9FF4F83B007461C468C4E8D
:1022B00030780B2804D00025002D04D0894804E094
:1022C0004FF00105F8E74FF00000029001D086487A
:1022D00000E08648019096F90D00C0F1000000F082
:1022E0008DFE7F498031496800F0E8FE8246002D6E
:1022F00002D0DFF8FC9101E0DFF8F89102D042F65D
:10230000E06001E042F21070F17CDFF8ECB14FF0D8
:102310000008E9B39CB17079FEF7C0F878B1707825
:10232000401C84420BD896F90D0000F067FE10990E
:1023300000F0C4FE10F17F5F01D3012500E000250D
:1023400020461099FEF766F800B91DB1F07A401CDE
:10235000F07201E086F80B80F07A022808D3DDE9FC
:102360000412109B07B03846BDE8F04FFFF738BFA6
:102370006248824505DAB06A40F6C411381A8842CC
:1023800005D307B00820BDE8F04FFFF7E9B800E03B
:102390001DE02CB11098FDF776FF5949884201DD08
:1023A000DFF860B196F90D00002801DD584601E024
:1023B0004FF00000706401DB4FF0000BC6F848B02E
:1023C000DDE9040107B0BDE8F04FFEF725BDB16AB5
:1023D000791A502906D207B00021BDE8F04F08460F
:1023E00000F092B8814205D307B00820BDE8F04F55
:1023F000FFF7B6B820461099FEF70CF840B15046EA
:10240000029900F027FF03D8F07A401CF07201E037
:1024100086F80B80F07A022820D3B5B1707BB073B8
:102420000021084600F070F8FFF75AFE0F203070C8
:10243000B76210983063F062C6F868802848803030
:10244000C0F8008007B0BDE8F08FDDE90412109BF2
:1024500007B03846BDE8F04FFFF7C2BE50460199BD
:1024600000F0F8FE18D8B07A022805D307B008208B
:10247000BDE8F04FFFF774B8401CB072707B40426B
:10248000707386F80B80FFF72BFE07B00021BDE8C4
:10249000F04F084600F038B85CB1052C09D87079C7
:1024A00010F0810F05D15046029900F0D3FE00D8FC
:1024B000D94696F90D00044600F0A0FD494600F00B
:1024C000FDFD7064604200F099FD494600F0F6FDA4
:1024D000B064DDE9040107B0BDE8F04FFEF79CBC35
:1024E000300000200BBE753F7F92EA3F920A863F84
:1024F00000002842000010420000F041A9611C3F8A
:10250000000040400000484210B50C460449C87025
:102510000C71FFF7E9F82046BDE81040FFF710B94D
:1025200030000020AFF300800CB500220192009231
:102530002748016841F4803101604FF4A0630168CD
:1025400001F4003100910199491C0191009911B9E0
:1025500001999942F3D10168890302D501210091C3
:1025600000E000920099012930D11A490A6842F02E
:1025700010020A600A6822F003020A600A6842F048
:1025800002020A604168416041684160416841F46B
:1025900080614160416821F47C114160416841F4EF
:1025A000E8114160016841F08071016001688901B2
:1025B000FCD5416821F003014160416841F002010E
:1025C00041604168C1F381010229FAD10CBD0000CC
:1025D00000100240002002402DE9FF4F83B0044666
:1025E000DDF844800E4615464FF0000B68488542E2
:1025F00001D3C71700E00127854201D385F00045CC
:102600006448DFF894A185420AF1080916DA3146D8
:102610002046FFF713FE3046FFF787FB09F108015C
:10262000002041F8240049F824004AF82400C13968
:102630000855891C085507B0BDE8F08F5648AF38DB
:102640000057B84213D031462046FFF7F7FD304619
:10265000FFF76BFB50490020103141F8240049F886
:1026600024004AF82400C1390855881C075538460B
:1026700000F0C4FC2946029000F020FDF0600698AE
:1026800030610699029800F019FD069010990298A1
:1026900000F014FDB0F1824F11DB3F49103151F8C9
:1026A0002400404441F8240000214AF8241049F84D
:1026B0002410642823D33848B13801551FE0364A26
:1026C0000021103242F8241010F17D5F13D2334AFA
:1026D000904210DA5AF8240040444AF824002E4967
:1026E000B1390A5D5AB9782809D301200855282044
:1026F00049F8240003E04AF8241049F8241059F856
:10270000241069B1DFF898B0414501D8DFF894B0E2
:1027100002D9A1EB080001E04FF0000049F82400C5
:102720002946139800F0CAFC80461B48183850F818
:102730002410149800F010FB414600F00DFB0446F5
:102740002846069900F0C2FD014617482346CDE908
:1027500000B03046129AFFF7F3FA044613492846B0
:1027600000F0FAFA069900F075FC06D24FF0FF313E
:10277000F06900F052FEF06100244FF07C512046D9
:1027800000F0EAFA00F01EFC784340B253E7000084
:102790000000808000002041F80000200000C040C0
:1027A000000090410000B0410000F04100004041B5
:1027B0007047000010B51A4A506800F00C01194B20
:1027C000194800290ED004290ED008290ED0036024
:1027D0005168154AC1F30311121D515C0268CA40C9
:1027E000026010BD0360F3E70360F1E7516801F494
:1027F0007011536803F48033022404EB914133B128
:1028000053689B0307D5094B59430160E0E7074B29
:1028100059430160DCE7034B59430160D8E70000EE
:102820000010024000127A000000002000093D0064
:1028300010B50F48016841F00101016041680D4A7F
:102840001140416001680C4A11400160016821F4A7
:1028500080210160416821F4FE0141604FF41F01B5
:102860008160FFF75FFE05494FF00060086010BD12
:10287000001002400000FFF8FFFFF6FE08ED00E048
:1028800010B5084C0121204600F01FF8002807D0A1
:102890000121204600F00AF80348C169491CC161C2
:1028A00010BD00000004004030000020C943018238
:1028B0007047002904D0018841F001010180704770
:1028C000018821F001010180704702460020138A2F
:1028D0000B4092890A40002B02D0002A00D0012030
:1028E0007047002A03D082890A4382817047828917
:1028F0008A4382817047018921F007010181704775
:1029000070B5028C22F480720284028C8388848BDE
:1029100024F0700424F003040D88254322F400728F
:102920000E894FF6FF7404EA062616434A8804EA25
:1029300002223243114EB04202D0114EB04217D1A2
:1029400022F400664A8904EA0222324322F48066B5
:102950008A8804EA0222324323F4805323F400538A
:102960008E8904EA06161E43CB8904EA0313334317
:1029700083808583C9888187028470BD002C0140D3
:102980000034014070B5028C22F480520284058C20
:102990008288838B23F4E04323F440760C884FF63F
:1029A000FF7303EA0424344325F400550E8903EA37
:1029B00006362E434D8803EA05353543094EB042AD
:1029C00002D0094EB04205D122F480468A8903EA3A
:1029D0008212324382808483C988A0F84010058423
:1029E00070BD0000002C0140003401400021018036
:1029F00041808180C180018141818181C181704795
:102A000081877047A0F840107047000030B50288F9
:102A10001B4C1C4DA0420DD0A8420BD0B0F1804FF2
:102A200008D0194B984205D0184B984202D0184B49
:102A3000984203D122F070034A881A43154B9842FA
:102A400006D0154B984203D022F44073CA881A432B
:102A500002808A8882850A880285A0420AD0A8421C
:102A600008D00E4A904205D00D4A904202D00D4A3D
:102A7000904201D1097A01860121818230BD000096
:102A8000002C0140003401400004004000080040D8
:102A9000000C0040001000400014004000400140C5
:102AA00000440140004801404FF6FF718180002141
:102AB0000180C18041800172704710B50146012933
:102AC0000CD003290AD0022901D0052914D100F025
:102AD00071F838B1BDE8104000F0D4B8BDE810403E
:102AE00000F0D0B8052903D0BDE8104000F07EB852
:102AF000BDE8104000F0A8B810BD000030B58BB0A4
:102B00002948002545620562C56185718563456375
:102B10008565456500F0B6F8FEF702FD01A8FFF7F0
:102B200067FA0024FDF7C8FF641CE4B2042CF9D353
:102B300001210220FFF7EAF902A8FFF703FA049C3B
:102B4000DDE90310884200D0640008A8FFF7ACFF5D
:102B50001648B4FBF0F0401EADF8200040F2E7301C
:102B6000ADF82400124C08A92046FFF74FFF0121C1
:102B70002046FFF79BFE1D218DF81C1002218DF8C9
:102B80001D108DF81E5001218DF81F1007A8FEF7AB
:102B900005FE012211462046FFF7A3FE0121204633
:102BA000FFF787FE0BB030BD3000002040420F0021
:102BB000000400400948007801280DD00C280BD0F3
:102BC000022809D00A2807D00E2805D00B2803D0E8
:102BD0000F2801D0002070470120704730000020EE
:102BE0000148C069704700003000002038B500F08F
:102BF00049F86846FFF7FCF90546124CF5B128463E
:102C00000099FDF707FC18B16078854200D965701E
:102C10000120FEF77DFA0220FEF77AFA0025A5636F
:102C20006563FFF75DFAA565656500982063E0625E
:102C3000FFF7D6FF20620120207038BD04202070ED
:102C400038BD00003000002070B500F01BF80120F6
:102C5000FEF75EFA0220FEF75BFA094C0025A56339
:102C60006563FFF73DFAA5656565FFF7B9FF20626B
:102C70000A202070BDE870401E210846FFF744BCC2
:102C80003000002070B500210846FFF73DFC164CCF
:102C9000002525702563E56204F1B00045600560FC
:102CA000FDF7EAFBA566656604F1800005604560F6
:102CB000E567A567A5736573E572A57265742574EC
:102CC000E5734561056105622575E57445628562B8
:102CD0006575C562A5750120A07002206070BDE811
:102CE0007040FFF7FDB900003000002070B5FFF71D
:102CF00077FF04460A4E306A251A142D04D3346235
:102D000029462046FDF7D8FB142D08D3706A201AF7
:102D10003C2804D37462BDE87040FDF7CDBE70BDA1
:102D200030000020FEE7FFF745FD4FF4A060FEF7FE
:102D300067FDFEF7ADFCFEF71FFCFEF715FAFEF788
:102D40000BFEFFF7DBFE0020FEF734FCFFF7B5FEBD
:102D5000FFF7CCFFF7E7000090EA010F48BF81F0D2
:102D6000004100F1BA82421A3CBF801A89184FEA2A
:102D7000D0524FF07F4C1CEA410FA2EBD15318BF49
:102D80009CEA026F00F03B804FF0004C4CEA0020C0
:102D90004CEA012121FA03FC10EB0C0C1ED202F1CB
:102DA000FF325FEA1C2040EBC25038BF70471CF076
:102DB0007F0F4FEA400C18BFBCF17F4F38BF704700
:102DC000C3F12003994008BF20F00100BCF17F4F00
:102DD00038BF7047A0F1C04000F037BA4FEA3C005E
:102DE000000A40EBC25028BF1CF0FF0F4FEA400C16
:102DF000E6D018BFBCF17F4F38BF7047EAE79CEAC6
:102E0000026F05D010EA5C0F08BF00F00040704769
:102E100010B500F0D4F900BF64FBBE3E014800F0DD
:102E2000CABA00BF0000C07F401058BFC0F1404088
:102E3000491058BFC1F140418142EFF30080704713
:102E40004FF47F0C1CEAD0121EBF1CEAD11392EA89
:102E50000C0F93EA0C0F00F0858090EA010F48BF39
:102E600042F4807240F4000C41F400002CF07F41E9
:102E700020F07F4000B58142A2EB03020FF2081C54
:102E8000ACEB504EC0F100009EF800E04FEA4E0E51
:102E900000FB0EFC38BF49004FEA2C1C02F5FA0279
:102EA0000CFB0EF34FEACE1E4FEA112C4FEAC12164
:102EB0000EEB635E42EB22420EFB0CFC4FEA1C530E
:102EC00000FB03114FEA112C4FEA01310EFB0CFC01
:102ED0004FEADC4C00FB0C11C14228BF09184CEB37
:102EE00003335DF804EB10EB410143EBC250B2F544
:102EF0007C0F38BF704729D512F0F00F1CBF00F1CE
:102F0000C04000F00040704700818283848586873E
:102F100088898B8C8D8E8F919293959697999A9C98
:102F20009D9FA0A2A3A5A7A8AAACAEB0B2B3B5B707
:102F3000B9BCBEC0C2C5C7C9CCCED1D4D7D9DCDFDD
:102F4000E2E6E9ECF0F3F7FAFE0000004FEA400C8D
:102F50000CF1807CBCF17E4F28BF7047B0F1C040BF
:102F600000F073B990EA010F0CEAD11348BF42F4A4
:102F70008072624538BF634507D213F47F0F16D0C5
:102F800080EA010000F00040704710B500F017F92A
:102F9000097EFC3E00F005B880EA010000F0004028
:102FA000704780EA010000F0004000F04EB912F4D2
:102FB0007F0F04BF0248704780EA010000F045B966
:102FC0000000C07F41000B0ED3F19E0208D950F4DF
:102FD00000034FEA032323FA02F048BF4042704740
:102FE00010B500F0ECF800BF499224800020704733
:102FF0006FF0004282EA20007047000010F00041AC
:1030000048BF4042B0FA80F310FA03F2C3F19D03C7
:103010000BD051EAC35101EB1220530638BF704761
:1030200000F1010008BF20F001007047B0FA80F302
:1030300010FA03F2C3F19D030AD0D90501EB122067
:10304000530638BF704700F1010008BF20F00100AF
:103050007047000050EA010C00F113801CF5000FCE
:1030600058BFBCF5000F01D48842704707D710F550
:10307000000F58BF11F5000F15D4884270478942E0
:1030800070471CF5000F04D5BCF5000FF7D5814241
:1030900070474FF0807C1CEB400F38BF1CEB410F9A
:1030A00001D28142704710B500F089F8922449009E
:1030B0004FF000504FF08051FFF7B6BE4FF47F0C39
:1030C0001CEAD0121EBF1CEAD11392EA0C0F93EA3D
:1030D0000C0F00F0478090EA010F48BF42F4807265
:1030E0004FF0004C4CEA00204CEA012102EB0302B5
:1030F000A0FB0113A2F50002002918BF43F0010351
:103100005B0028BF4FEA330342EB22425FEA132CF5
:103110004CEBC2502EBFBCEB436FB2F57C0F704737
:103120004FEA036CBCF1004F08BF20F00100B2F57C
:103130007C0F38BF70470BD582F0FF0212F5803F3D
:10314000C8BF704700F1C040D8BF00F000407047D2
:1031500000F5000C5FEA4C0C48BF7047B0F1C0406E
:1031600000F073B890EA010F0CEAD11348BF42F4A3
:103170008072624538BF634504D280EA010000F0E6
:103180000040704710B500F01AF800BF8900013EFA
:1031900000F007B800F009B85FEA410C5FEA1C6C68
:1031A00008D080EA010000F050B85FEA400C5FEA06
:1031B0001C6CF6D14FF00040A0F5800070470EF176
:1031C000020E2EF0030E5EF8044B244204D44FEAA4
:1031D0004102B2F17F4F11D84FEA4003B3F17F4F64
:1031E0000CD80ED14FEAD07CB2F17F4F0CEB4C0CD7
:1031F0000CF1020C08BF4CEBD17C04E04FF0080C42
:1032000001E04FEAD17C0CEB4C0324FA03F404F008
:103210000704B4F1040C06D20EEB840CBDE8104098
:103220004CF0010C6047DFE80CF0070802024FF099
:103230000040A0F5800010BD0846420018BFD2F142
:10324000807288BF00F0004010BDFF2141EAD050DD
:10325000C005704751EA000C00F113801CF5000F07
:1032600058BFBCF5000F01D48142704707D711F554
:10327000000F58BF10F5000F15D4814270478942E6
:1032800070471CF5000F04D5BCF5000FF7D5884238
:1032900070474FF0807C1CEB410F38BF1CEB400F98
:1032A00001D28842704780EA010081EA000180EA89
:1032B0000100FFF7F8BE80F0004090EA010F7FF5B3
:1032C00052AD81F0004100F008B8000090EA010F13
:1032D00048BF81F000413FF546AD421A04D882F064
:1032E0000042A0EB020011444FEAD0524FF07F4C55
:1032F0001CEA410FA2EBD15318BF9CEA026F4AD0DF
:103300004FF0004C4CEA00204CEA012121FA03FC6A
:10331000B0EB0C0C0FD412F0FE0F36D05FEA4C006D
:103320001DD5001240EBC25038BF70471CF03F0F54
:1033300018BF70470BE0A2F101025FEA1C2040EBCE
:10334000C25038BF70471CF07F0F18BF7047C3F1E1
:103350002003994014BF401E20F0010070478008F0
:103360004FEA122308BF7047B0FA80FCA2EB0C02B0
:10337000CCF1280C60FA0CF093EA122F04BF00EB9A
:10338000C25070474FEAC3707047130A5FEADC10FF
:1033900008BF7047F6E79CEA026F04D010EA5C0FA2
:1033A00008BF0020704710B5FFF709FF40DFF63E69
:1033B00081F0004070470CF00F03092B08BF082074
:1033C00000F051800A2B0BD0082B18BF704708BFA4
:1033D0001CF0400F0AD04FF000004FF00001704782
:1033E0001CF0400F18BF4FF0004070471CF0100F4A
:1033F00008D020F0704300F07F4242EAD3014FEA48
:103400004370704700F0604021F07F4242EA0002C2
:1034100001F07F4040EA727070474FF0FF0212EAFD
:10342000D0521CBF92F0FF038B42C2BFD14200EBCF
:10343000C1507047002A0AD0002B0BD0002900F0A1
:103440000040A4BF40F0FE4040F40000704700F090
:103450000040704743024FF00B0C18BF4CF0806CDB
:103460007FF4DCAC70471CF4801F11D01CF4E02FFB
:1034700003D06FEACC31490070474FF04050EFF372
:10348000008222F0704242EA000282F30088704714
:103490004FF0000070470000000000000000000036
:1034A000000000000000000000F800000000000024
:1034B00000333000000000100C06100C0600000065
:1034C00000000000000040C07840C0784000043F89
:1034D00004043F040400007088FC08300000001859
:1034E00020FF211E0000F008F000E018000000217D
:1034F0001C031E211E0000F00888700000001E2121
:1035000023241927211010160E00000000000000CF
:10351000000000000000000000E0180402000000AD
:1035200000071820400000020418E00000000040DE
:10353000201807000000404080F080404000020258
:10354000010F01020200000000F000000000010174
:10355000011F01010100000000000000000080B018
:1035600070000000000000000000000000000001EA
:103570000101010101010000000000000000003015
:1035800030000000000000000000806018040060AF
:1035900018060100000000E010080810E000000F0D
:1035A000102020100F00001010F800000000002074
:1035B000203F2020000000700808088870000030BC
:1035C0002824222130000030088888483000001864
:1035D000202020110E000000C02010F8000000077D
:1035E0000424243F240000F80888880808000019F3
:1035F000212020110E0000E0108888180000000F24
:10360000112020110E0000380808C83808000000FA
:10361000003F000000000070880808887000001C4F
:10362000222121221C0000E010080810E000000008
:10363000312222110F00000000C0C0000000000075
:10364000003030000000000000800000000000009A
:103650008060000000000000804020100800000191
:103660000204081020004040404040404000040454
:10367000040404040400000810204080000000201E
:10368000100804020100007048080808F00000005B
:10369000003036010000C030C828E810E0000718EC
:1036A000272423140B000000C038E0000000203C59
:1036B00023020227382008F8888888700000203FFD
:1036C000202020110E00C030080808083800071814
:1036D00020202010080008F808080810E000203F0B
:1036E000202020100F0008F88888E8081000203FEC
:1036F00020202320180008F88888E8081000203FC0
:10370000200003000000C030080808380000071837
:103710002020221E020008F808000008F808203FB8
:10372000210101213F20000808F8080800000020BE
:10373000203F2020000000000808F8080800C08092
:1037400080807F00000008F888C028180800203F0B
:1037500020012638200008F8080000000000203F63
:1037600020202020300008F8F800F8F80800203F5A
:10377000003F003F200008F830C00008F808203F54
:10378000200007183F00E01008080810E0000F10A4
:10379000202020100F0008F808080808F000203F3B
:1037A000210101010000E01008080810E0000F18D6
:1037B000242438504F0008F8888888887000203FFB
:1037C0002000030C302000708808080838000038FA
:1037D000202121221C00180808F808081800000001
:1037E000203F2000000008F808000008F808001F2B
:1037F000202020201F000878880000C8380800001A
:1038000007380E010000F80800F80008F800033C33
:103810000700073C030008186880806818082030FB
:103820002C03032C30200838C800C83808000000DA
:10383000203F2000000010080808C8380800203881
:10384000262120201800000000FE020202000000D5
:10385000007F40404000000C30C00000000000002D
:1038600000010638C00000020202FE000000004015
:1038700040407F000000000004020202040000003B
:103880000000000000000000000000000000808038
:103890008080808080800002020400000000000020
:1038A00000000000000000008080808000000019FF
:1038B000242222223F2008F8008080000000003FE0
:1038C000112020110E000000008080800000000EFA
:1038D000112020201100000000808088F800000ED8
:1038E000112020103F200000808080800000001FF9
:1038F000222222221300008080F08888881800206D
:10390000203F202000000000808080808000006B2D
:1039100094949493600008F8008080800000203F19
:10392000210000203F200080989800000000002027
:10393000203F20200000000000809898000000C078
:103940008080807F000008F8000080808000203F99
:1039500024022D302000000808F80000000000209C
:10396000203F202000008080808080808000203FD9
:1039700020003F20003F8080008080800000203FAA
:10398000210000203F200000808080800000001F78
:10399000202020201F00808000808000000080FF09
:1039A000A12020110E000000008080808000000E09
:1039B000112020A0FF808080800080808000202057
:1039C0003F212000010000008080808080000033C3
:1039D000242424241900008080E08080000000005E
:1039E000001F202000008080000000808000001F59
:1039F000202020103F2080808000008080800001F7
:103A00000E300806010080800080008080800F302A
:103A10000C030C300F0000808000808080000020AC
:103A2000312E0E31200080808000008080808081D7
:103A30008E70180601000080808080808000002148
:103A4000302C2221300000000000807C02020000A7
:103A50000000003F404000000000FF0000000000A8
:103A60000000FF0000000002027C80000000004017
:103A7000403F0000000000060101020204040000B3
:103A80000000000000000000A83A0008000000202C
:103A9000140100006C010008BC3B00081401002068
:103AA000FC0600008801000800A24A040000000093
:103AB00000000000010203040607080902040608CA
:103AC00000000000010203040102030406070809C4
:103AD00000000000000000000002010000000000E3
:103AE00000000000000000000000000000000000D6
:103AF00000000000000000000000000000000000C6
:103B000000000000000000000000000000000000B5
:103B100000000000000000000000000000000000A5
:103B20000000000000000000000000000000000095
:103B30000000000000000000000000000000000085
:103B40000000000000000000000000000000000075
:103B50000000000000000000000000000000000065
:103B60000000000000000000000000000000000055
:103B70000000000000000000000000000000000045
:103B80000000000000000000000000000000000035
:103B90000000000000000000000000000000000025
:103BA0000000000000000000000000000000000015
:0C3BB00000000000000000000000000009
:04000005080001CD21
:00000001FF
